:020000040800F2
:1000000000000220D575000861040008650400089E
:10001000690400086D040008710400080000000075
:10002000000000000000000000000000750400084F
:1000300079040008000000007D0400088104000825
:100040002176000821760008217600082176000834
:100050002176000821760008217600082176000824
:100060002176000821760008217600082176000814
:100070002176000821760008217600082176000804
:1000800021760008217600082176000821760008F4
:1000900021760008217600082176000821760008E4
:1000A00021760008217600082176000821760008D4
:1000B00021760008217600082176000821760008C4
:1000C00021760008217600082176000821760008B4
:1000D00021760008217600082176000821760008A4
:1000E0002176000821760008217600082176000894
:1000F0002176000821760008217600082176000884
:100100002176000821760008217600082176000873
:100110002176000821760008217600082176000863
:100120005102000821760008217600082176000897
:100130002176000821760008217600082176000843
:100140002176000821760008217600082176000833
:100150002176000821760008217600082176000823
:100160002176000821760008217600082176000813
:100170002176000821760008217600082176000803
:08018000217600082176000839
:1001880010B5054C237833B9044B13B10448AFF3C9
:1001980000800123237010BD5804002000000000D7
:1001A8003076000808B5064B1BB106480649AFF380
:1001B80000800648036813B1054B03B1984708BD92
:1001C80000000000307600085C0400205404002081
:1001D80000000000154B002B08BF134B9D46A3F5EC
:1001E800803A00218B460F461348144A121A07F02A
:1001F800AFF80F4B002B00D098470E4B002B00D0C8
:1002080098470020002104000D000D48002802D066
:100218000C4807F069F907F073F82000290000F08E
:1002280059F807F05DF800BF000008000000000062
:10023800000000000000000058040020781C002086
:10024800F1740008FD740008704700BF00B585B060
:100258000120014604F06CFD002301930393012360
:10026800ADF80430642302934FF0804001A906F0F2
:10027800B7F84FF08040202106F02AFD05B05DF860
:1002880004FB00BF10B584B00220012104F050FD2A
:100298000023019303930123ADF804303223029322
:1002A8000B4C204601A906F09BF82046082106F0D1
:1002B80025F92046062106F017FD2046102106F0F4
:1002C800FFFC2046202106F003FD04B010BD00BF4E
:1002D8000004004010B582B04FF4407000F094F96B
:1002E800FFF7B4FFFFF7CEFF0420012104F0F6FC6E
:1002F80000230193C023009301248DF804408DF856
:1003080005400548694603F03BFD4FF08040214613
:1003180006F00CF9FEE700BF0008024010B590B0E7
:100328004FF40010012104F0D9FC01A800213C225F
:1003380007F00EF84FF0606301930F4B02930F4BD9
:100348000393402304934FF48063059307934FF47A
:10035800006308934FF4005309934FF440330B9311
:10036800074C204601A902F051FE2046012102F067
:100378008BFE10B010BD00BF08740040740400204C
:10038800886002402DE9F04190B04FF480000121CF
:1003980004F0A4FC01A800213C2206F0D9FF284B58
:1003A8000293284B03934FF48066059607964FF403
:1003B8000068CDF820804FF4005709974FF4403378
:1003C8000B93214D284601A902F020FE2846012161
:1003D80002F05AFE4FF0007301931C4B02931C4B22
:1003E800039300240494059606940796CDF820807C
:1003F80009970A944FF400330B930C940E940F94BE
:10040800144E304601A902F001FE3046012102F0E7
:100418003BFE28461021012202F0C2FE2846102188
:1004280002F00EFF009438238DF8003001238DF878
:100438000330684600F0F2F810B0BDE8F08100BF64
:100448004C20014078140020106402404C210140E7
:10045800780C002040640240704700BFFEE700BFF0
:10046800FEE700BFFEE700BFFEE700BF704700BF22
:10047800704700BF704700BF704700BF82B0394B5C
:10048800D3F8882042F47002C3F88820364B1A68E3
:1004980042F001021A6000229A60196821F0847102
:1004A80021F48031196031495960196821F480219B
:1004B8001960DA60009201921A6842F480321A6078
:1004C8001A46136803F400330193009B0133009329
:1004D800019B1BB9009BB3F5A06FF2D1224B1B689F
:1004E80013F4003F14BF012300230193019B012B48
:1004F80032D11D4B1A6C42F080521A641C4A1168A2
:1005080041F4404111609A689A609A6842F4004246
:100518009A609A6842F4A0529A60164A5A601A6819
:1005280042F080721A601A46136813F0007FFBD0FD
:1005380040F20562104B1A60A3F580639A6822F0B6
:1005480003029A609A6842F002029A601A46936817
:1005580003F00C03082BFAD14FF00062014B9A60AC
:1005680002B0704700ED00E000380240103000246F
:100578000070004008544007003C02401E4B9B6836
:1005880003F00C03042B06D0082B08D023BB1B4A0E
:100598001B4B1A6023E01B4A194B1A601FE0164BCD
:1005A80059685B6803F03F0311F4800F124A5168E1
:1005B800C1F3881114BF134A104AB2FBF3F202FBCD
:1005C80001F20D4B5B68C3F3014301335B00B2FBDF
:1005D800F3F20B4B1A6002E0084A094B1A60064B0B
:1005E8009A68C2F30312064B1A441179C9B21A6801
:1005F800CA401A60704700BF003802400024F40067
:100608000400002000127A0040F0BF6040F400307F
:10061800014BD860704700BF00ED00E010B4C3780C
:1006280013B3184BDB68DB43C3F302234178C3F1F0
:100638000402D2B201FA02F2D2B2DBB20F2119419E
:100648008478214011430901C9B202780E4B1A443B
:1006580082F800130278510902F01F02012000FA03
:1006680002F243F821200AE00378590903F01F0336
:10067800012202FA03F32031034A42F821305DF8DF
:10068800044B704700ED00E000E100E021F060411C
:1006980021F07F010843014B9860704700ED00E0AE
:1006A80021B1054B1A69104318617047024B1A694A
:1006B80022EA00001861704700ED00E00428044BAE
:1006C8001A680CBF42F0040222F004021A60704754
:1006D80010E000E008B54FF48070012104F07CFBC5
:1006E8004FF48070002104F077FB08BD10B4436814
:1006F80023F0407323F480730A6813430A7943EAAA
:10070800022343608468CA680B691A438B681A43DA
:10071800094B234013434A7943EA42038360C26A80
:1007280022F470020B7D013BDBB242EA0353C36241
:100738005DF8044B704700BFFDF7FFC0002303605E
:10074800037143718360C3600361012303757047BC
:1007580010B4084A5168084B0B40446801680C43C0
:1007680081682143C06801430B4353605DF8044B23
:10077800704700BF00230140E030FCFF0023036006
:1007880043608360C360704721B1836843F001030D
:1007980083607047836823F001038360704700BF5C
:1007A800436823F4400323F40073194341607047FE
:1007B80041628262704700BF436823F01F031943F8
:1007C8004160704728B1064B5A6842F400025A60EB
:1007D8007047034B5A6822F400025A60704700BF02
:1007E8000023014028B1064B5A6842F480025A603F
:1007F8007047034B5A6822F480025A60704700BF62
:100808000023014070B409290ED9C668A1F10A0471
:1008180004EB44040725A54026EA050503FA04F479
:1008280045EA0403C3600BE0066901EB41040725B0
:10083800A54026EA050503FA04F445EA0403036122
:10084800062A0CD8446B013A02EB82021F2393401C
:1008580024EA030301FA02F21A4342631AE00C2A5B
:100868000CD8046B073A02EB82021F23934024EA58
:10087800030301FA02F21A4302630BE0C46A0D3A59
:1008880002EB82021F23934024EA030301FA02F2D7
:100898001A43C26270BC7047836843F08043836028
:1008A800704700BF8068C0F38050704721B18368EB
:1008B80043F4806383607047836823F480638360B4
:1008C800704700BF21B1836843F00203836070471B
:1008D800836823F002038360704700BF436823F4F2
:1008E8006043013943EA41334360704721B14368AB
:1008F80043F4006343607047436823F40063436034
:10090800704700BFC06C80B2704700BF014B1868C9
:10091800704700BF0823014021B1836843F4807306
:1009280083607047836823F480738360704700BFD7
:1009380021B1836843F4007383607047836823F4AC
:1009480000738360704700BF28B1064B5A6842F4B1
:1009580000525A607047034B5A6822F400525A609A
:10096800704700BF0023014070B409290ED9C6683A
:10097800A1F10A0404EB44040725A54026EA05056D
:1009880003FA04F445EA0403C3600BE0066901EBCB
:1009980041040725A54026EA050503FA04F445EABB
:1009A80004030361846B931CC4F301555B1BDBB226
:1009B80003EB83031F229A4024EA0204994044EA85
:1009C8000103836370BC7047836B23F440130139C0
:1009D80043EA01538363704782B000230193019077
:1009E800019B19440191019B1A6002B0704700BF36
:1009F800836823F47023194381607047836823F464
:100A08004013194381607047836843F4800383600F
:100A1800704700BF8068C0F38050704721B14368B9
:100A280043F4806343607047436823F48063436002
:100A3800704700BF21B1436843F480534360704757
:100A4800436823F480534360704700BF82B000239B
:100A580001930190019B283319440191019B186867
:100A680080B202B0704700BFC9B2012303FA01F196
:100A78001AB14368194341607047436823EA01018A
:100A880041607047036819420CBF0020012070477D
:100A9800C9430160704700BF4268036813EA112325
:100AA80008D0C9B2012303FA01F111420CBF00209A
:100AB80001207047002070476FEA112101607047DC
:100AC80008B50C4B98420AD14FF00070012104F090
:100AD80075F94FF00070002104F070F908BD4FF06F
:100AE8008060012104F06AF94FF08060002104F071
:100AF80065F908BD00640040036823F00203036041
:100B0800036843F001030360436813F0010F07D142
:100B18004FF6FF73426812F0010F01D1013BF9D182
:100B2800436813F0010F5AD08B79012B03680CBF6F
:100B380043F0800323F080030360CB79012B036823
:100B48000CBF43F0400323F0400303600B7A012BF2
:100B580003680CBF43F0200323F0200303604B7AA3
:100B6800012B03680CBF43F0100323F0100303604C
:100B78008B7A012B03680CBF43F0080323F00803AA
:100B88000360CB7A012B03680CBF43F0040323F006
:100B980004030360CA788B789B0743EA02630A79E7
:100BA80043EA02434A7943EA02520B88013B134362
:100BB800C361036823F001030360436813F0010F66
:100BC80007D04FF6FF73426812F0010F01D0013BC6
:100BD800F9D1406880F0010000F001007047002062
:100BE800704700BF70B4837A01219940384BD3F81D
:100BF800002242F00102C3F80022D3F81C42CA4383
:100C08001440C3F81C42037BB3B9314BD3F80C42F0
:100C18001440C3F80C42847AC688458845EA0645DC
:100C2800483443F83450857A8688048844EA064470
:100C3800483503EBC5035C60037B012B16D1244BBD
:100C4800D3F80C420C43C3F80C42847A06884588D2
:100C580045EA0645483443F83450857A8688C4887E
:100C680044EA0644483503EBC5035C60C37A33B9EC
:100C7800174BD3F804421440C3F8044205E0144B60
:100C8800D3F804420C43C3F8044203892BB9104B30
:100C9800D3F814422240C3F814220389012B05D14A
:100CA8000B4BD3F814220A43C3F81422437B012BBD
:100CB80005D1074BD3F81C221143C3F81C12044B6F
:100CC800D3F8002222F00102C3F8002270BC70475A
:100CD8000064004000238371C371037243728372FE
:100CE800C3728370C370032303710223437101230A
:100CF800038070470D4BD3F8002242F00102C3F87D
:100D08000022D3F8002222F47C5222F00E02C3F80B
:100D18000022D3F8002242EA0020C3F80002D3F8E8
:100D2800002222F00102C3F800227047006400404C
:100D380021B1036843F4803303607047036823F4E8
:100D480080330360704700BFB1B1036843F080038C
:100D58000360D0F8843143F48073C0F88431D0F84C
:100D6800943143F48073C0F89431D0F8A43143F43B
:100D78008073C0F8A4317047036823F080030360D0
:100D8800D0F8843123F48073C0F88431D0F89431DA
:100D980023F48073C0F89431D0F8A43123F480731D
:100DA800C0F8A431704700BFF0B40246836813F05E
:100DB800806F4FD1836813F0006F4DD1836813F0B3
:100DC800805F4BD1042057E0D3F880610C684F7ADC
:100DD80047EA44543443C3F8804109E0D3F88071AA
:100DE8004E6844EAC6043C434F7A3C43C3F880410A
:100DF8008C7A04F00F048C72D3F8844124F00F0429
:100E0800C3F88441D3F884418E7A3443C3F88441CB
:100E18008C7B4E7B360446EA0466CC7A26430C7BF0
:100E280046EA042602EB051202F5C474C2F888618A
:100E38008D7C4A7C120442EA0562CD7B2A43097CF8
:100E480042EA01226260D3F8802142F00102C3F82D
:100E5800802111E0002002E0012000E00220054688
:100E680002EB0013D3F8804104F00104C3F8804179
:100E78000C7A002CA8D0B1E7F0BC704701290DD03E
:100E880011B102290ED015E0836823F07B4323F4C7
:100E98007F0323F47F4323F0FC030CE08268114BAB
:100EA800134008E0836823F06F4323F47C031B0C92
:100EB8001B0400E000230C4A93420BD001D83BB13D
:100EC8000EE0084A934207D0084A934206D007E04A
:100ED80002207047012070470120704701207047A9
:100EE80000207047000300080300000400000310FE
:100EF800012908D011B102290AD07047836843F04C
:100F0800800383607047836843F4004383607047BD
:100F1800836843F400038360704700BF30B400EB7C
:100F28000113D3F8B04104F00404E4B2147224B9F4
:100F3800D3F8B041640D146003E0D3F8B041E4087D
:100F48005460D3F8B04104F002045472D3F8B441A9
:100F580004F00F049472D3F8B4311B0AD37400EB75
:100F6800011303F5DC74D3F8B851D572D3F8B8512E
:100F78002D0A1573D3F8B8512D0C5573D3F8B83121
:100F88001B0E93736368D37363681B0A13746368D7
:100F98001B0C537463681B0E937421B9C36843F028
:100FA8002003C36003E0036943F02003036130BCFE
:100FB800704700BF21B9C36843F02003C36070477E
:100FC800036943F020030361704700BF19B9C06883
:100FD80000F003007047012903D1006900F0030005
:100FE80070470020704700BFD9B9036823F0030396
:100FF80043F001030360436803F00303012B08D0A7
:101008004FF6FF73426802F00302012A01D0013B48
:10101800F8D1406800F00300012814BF0020012027
:101028007047012916D1036823F00303036043685E
:1010380013F0030F07D04FF6FF73426812F0030F47
:1010480001D0013BF9D1436813F0030F14BF00200E
:101058000120704702291BD1036823F0030343F0E2
:1010680002030360436803F00303022B08D04FF622
:10107800FF73426802F00302022A01D0013BF8D153
:10108800406800F00300022814BF002001207047C8
:1010980000207047036823F0030343F00203036052
:1010A800406800F00300022814BF002001207047A8
:1010B800036823F002030360436813F0020F07D0AC
:1010C8004FF6FF73426812F0020F01D0013BF9D1CD
:1010D800406880F00200C0F340007047806900F06B
:1010E800700070478069000E704700BF8069C0F3C8
:1010F800074070471AB14369194341617047436912
:1011080023EA01014161704711F4700F07D0836928
:10111800C3F313030B420CBF00200120704711F0EA
:10112800807F07D04368C3F313030B420CBF002032
:101138000120704711F0006F07D08368C3F31303D1
:101148000B420CBF00200120704711F0007F14BF34
:10115800C3680369C3F313030B420CBF00200120CB
:10116800704700BF0B4B994202D10023836170473F
:10117800C1F3130311F0007F01D0C360704711F071
:10118800806F01D00361704711F0006F14BF836056
:10119800436070477000F030436919426DD04029B0
:1011A80048D00ED8042933D004D8012921D00229E7
:1011B80028D064E0102933D0202937D008295ED1FF
:1011C8002AE0B1F5006F4DD009D8B1F5007F41D0C4
:1011D800B1F5806F42D0B1F5807F50D136E0B1F5DE
:1011E800803F2BD0B1F5003F2CD0B1F5004F46D150
:1011F8003FE0806800F0013020F08070003018BFB8
:1012080001207047C06810F0030018BF0120704724
:10121800C068C0F3C0007047C068C0F300107047D2
:10122800006910F0030018BF012070470069C0F37F
:10123800C00070470069C0F3001070474068C0F3F1
:10124800C00070474068C0F300107047806900F024
:10125800010070478069C0F3400070478069C0F39F
:1012680080007047836913F0700F0CBF00200120C5
:1012780070474068C0F38000704700207047002026
:10128800704700BFB1F5807F37D00CD8082925D02A
:1012980004D801291CD004291DD07047202920D04A
:1012A800402921D07047B1F5006F2FD006D8B1F58D
:1012B800007F25D0B1F5806F25D07047B1F5803F0C
:1012C80015D0B1F5003F15D0B1F5004F27D122E078
:1012D800134B836070470823C36070471023C360B3
:1012E8007047082303617047102303617047082380
:1012F800436070471023436070470423436070477E
:1013080004234360704704234360704700238361CC
:1013180004234360704700238361042343607047BC
:10132800010101000122014B9A6070470030024020
:10133800014B1860186870470030024010B441B182
:10134800034600EB8100054C53F8042B22608342CE
:10135800FAD1024B18685DF8044B70470030024020
:10136800014B1868704700BF00300240014B1871EC
:10137800704700BF00300240014B1879704700BF2A
:10138800003002402DE9F0478EB007460C4616465D
:101398001D46DDF858900023019302A801F066F875
:1013A800C02E13D0B6F5807F26D0802E3FD10023E3
:1013B8000D9323681BBA069363681BBA0793A36847
:1013C8001BBA0893E3681BBA099330E04FF48073A3
:1013D8000D9323681BBA049363681BBA0593A3682B
:1013E8001BBA0693E3681BBA079323691BBA0893D1
:1013F80063691BBA09931AE04FF400730D932368CD
:101408001BBA029363681BBA0393A3681BBA0493BD
:10141800E3681BBA059323691BBA069363691BBA71
:101428000793A3691BBA0893E3691BBA099337BBEF
:1014380001F042F804230A9338230B9300230C93FA
:101448000AA800F0CBFF02A800F0FCFF012001F081
:101458003BF81024204601F045F9019A0132019227
:10146800019AB2F5803F02D00028F3D102E04FF094
:10147800000860B904230A934FF0010807E002A8A6
:1014880000F0E0FF00230A934FF00108FFE7202354
:101498000B9380230C930AA800F0A0FF01F00CF82E
:1014A800012001F011F801F015F9002848D0B9F130
:1014B800000F40D0B8F1000F3DD0AA461035179E56
:1014C80010360027102455F8100C01F00DF855F8C7
:1014D8000C0C01F009F855F8080C01F005F855F85E
:1014E800040C01F001F80197204601F0FBF8019B7C
:1014F80001330193019BB3F5803F02D00028F3D15B
:1015080000E0B0B900F0F6FF46F8100C00F0F2FF6A
:1015180046F80C0C00F0EEFF46F8080C00F0EAFF65
:1015280046F8040CCAEB0503994504D91035103662
:10153800C9E74FF00008002000F0C6FF404600E071
:1015480000200EB0BDE8F0872DE9F04792B00546BF
:101558000E4614461F46DDF86C900023019306A83A
:1015680000F084FFC02F13D0B7F5807F26D0802FDE
:101578003FD10023119323681BBA0A9363681BBAEF
:101588000B93A3681BBA0C93E3681BBA0D9330E066
:101598004FF48073119323681BBA089363681BBACE
:1015A8000993A3681BBA0A93E3681BBA0B932369D0
:1015B8001BBA0C9363691BBA0D931AE04FF40073BE
:1015C800119323681BBA069363681BBA0793A36831
:1015D8001BBA0893E3681BBA099323691BBA0A93D9
:1015E80063691BBA0B93A3691BBA0C93E3691BBA13
:1015F8000D9333681BBA029373681BBA0393B368DD
:101608001BBA0493F3681BBA059335BB00F054FF6B
:1016180004230E9338230F93002310930EA800F091
:10162800DDFE06A800F00EFF012000F04DFF10249B
:10163800204601F057F8019B01330193019BB3F554
:10164800803F02D00028F3D102E04FF0000860B9D3
:1016580004230E934FF0010807E006A800F0F2FEFD
:1016680000230E934FF00108FFE728230F938023F0
:1016780010930EA800F0B2FE02A800F001FF00F0DF
:101688001BFF012000F020FF01F024F800284AD0B9
:10169800B9F1000F42D0B8F1000F3FD0DDF868A0D3
:1016A8000AF110051C9E10360027102455F8100C5E
:1016B80000F01AFF55F80C0C00F016FF55F8080C4E
:1016C80000F012FF55F8040C00F00EFF01972046B9
:1016D80001F008F8019B01330193019BB3F5803FAA
:1016E80002D00028F3D100E0B0B900F003FF46F8BB
:1016F800100C00F0FFFE46F80C0C00F0FBFE46F85C
:10170800080C00F0F7FE46F8040CCAEB05039945EF
:1017180004D910351036C9E74FF00008002000F052
:10172800D3FE404600E0002012B0BDE8F08700BFBD
:101738002DE9F04393B007460D4614461E46DDF8E2
:101748006C900023019306A800F090FEC02E13D0E1
:10175800B6F5807F26D0802E3FD1002311932368D1
:101768001BBA0A9363681BBA0B93A3681BBA0C9342
:10177800E3681BBA0D9330E04FF48073119323682C
:101788001BBA089363681BBA0993A3681BBA0A9328
:10179800E3681BBA0B9323691BBA0C9363691BBAE2
:1017A8000D931AE04FF40073119323681BBA069344
:1017B80063681BBA0793A3681BBA0893E3681BBA4C
:1017C800099323691BBA0A9363691BBA0B93A3692C
:1017D8001BBA0C93E3691BBA0D932B681BBA0293CF
:1017E8006B681BBA0393AB681BBA0493EB681BBA0C
:1017F800059306A800F026FE17B904230E9301E00E
:1018080000230E9330230F93802310930EA800F02B
:10181800E5FD02A800F034FE00F04EFE012000F0C5
:1018280053FE00F057FF00284AD0B9F1000F3DD011
:101838001A9D10351C9E10364FF00008474610249C
:1018480055F8100C00F050FE55F80C0C00F04CFE4A
:1018580055F8080C00F048FE55F8040C00F044FE5A
:101868000197204600F03EFF019B01330193019B45
:10187800B3F5803F02D00028F3D100E0C0B900F0F2
:1018880039FE46F8100C00F035FE46F80C0C00F056
:1018980031FE46F8080C00F02DFE46F8040C08F15D
:1018A800100810351036C145CAD803E0012402E0FB
:1018B800002400E00124002000F006FE204600E09D
:1018C800002013B0BDE8F0832DE9F04F95B08046B5
:1018D8000D4614461F46DDF87C90219E0023039395
:1018E800DDF888B0F30000934FEAC903019308A814
:1018F80000F0BCFDC02F13D0B7F5807F26D0802F15
:101908003FD10023139323681BBA0C9363681BBA57
:101918000D93A3681BBA0E93E3681BBA0F9330E0CC
:101928004FF48073139323681BBA0A9363681BBA36
:101938000B93A3681BBA0C93E3681BBA0D93236936
:101948001BBA0E9363691BBA0F931AE04FF4007326
:10195800139323681BBA089363681BBA0993A36897
:101968001BBA0A93E3681BBA0B9323691BBA0C933F
:1019780063691BBA0D93A3691BBA0E93E3691BBA7B
:101988000F932B681BBA04936B681BBA0593AB685B
:101998001BBA0693EB681BBA0793B8F1010F40F026
:1019A800F28000F089FD08A800F04CFD04A800F0C2
:1019B80067FD002410944FF40023119380231293A1
:1019C80010A800F00BFD204600F06CFD012000F08F
:1019D8007BFD00F07FFE0128FBD0002E3FD04FF4A6
:1019E800803000F05FFD012000F06EFD00F072FE17
:1019F800002800F0BD81209B03F110050027012479
:101A0800204600F06FFE0028FAD055F8100C00F0C0
:101A18006BFD55F80C0C00F067FD55F8080C00F04C
:101A280063FD55F8040C00F05FFD10371035BE4219
:101A3800E6D8002303931024204600F053FE824684
:101A4800039B01330393039BB3F5803F01D0002828
:101A5800F2D1DAF1010A38BF4FF0000A01E04FF085
:101A6800010AB9F1000F5BD04FF4003000F01AFD05
:101A7800012000F029FD00F02DFE002800F07A81F9
:101A8800BAF1000F4CD01E9B03F11007229B03F103
:101A9800100801251024284600F024FE0028FAD05A
:101AA80057F8100C00F020FD57F80C0C00F01CFD46
:101AB80057F8080C00F018FD57F8040C00F014FD56
:101AC80000230393204600F00DFE039B013303938C
:101AD800039BB3F5803F02D00028F3D100E0E8B9BA
:101AE8000426304600F0FEFD0028FAD000F002FD82
:101AF80048F8100C00F0FEFC48F80C0C00F0FAFC5A
:101B080048F8080C00F0F6FC48F8040CCBEB080386
:101B1800994505D9103708F11008BCE74FF0000ABD
:101B28004FF4403000F0BEFC012000F0CDFC00F086
:101B3800D1FD002800F02081002000BA00F0D4FC7C
:101B4800009B18BA00F0D0FC002000BA00F0CCFCD2
:101B5800019B18BA00F0C8FC0424204600F0C2FD1E
:101B68000028FAD000F0C6FC239B186000F0C2FCE5
:101B7800239B586000F0BEFC239B986000F0BAFCE1
:101B8800239BD860EFE000F097FC08A800F05AFC0F
:101B980004A800F075FC042310934FF4002311935C
:101BA8008023129310A800F019FC002000F07AFCA2
:101BB800012000F089FC00F08DFD0128FBD0002EEB
:101BC8003FD04FF4803000F06DFC012000F07CFC29
:101BD80000F080FD002800F0D180209B03F1100563
:101BE80000270124204600F07DFD0028FAD055F892
:101BF800100C00F079FC55F80C0C00F075FC55F849
:101C0800080C00F071FC55F8040C00F06DFC10375E
:101C18001035BE42E6D8002303931024204600F076
:101C280061FD8246039B01330393039BB3F5803F19
:101C380001D00028F2D1DAF1010A38BF4FF0000ACA
:101C480001E04FF0010AB9F1000F5BD04FF400300A
:101C580000F028FC012000F037FC00F03BFD0028D4
:101C680000F08E80BAF1000F4CD01E9B03F11007D4
:101C7800229B03F1100801251024284600F032FDAC
:101C88000028FAD057F8100C00F02EFC57F80C0C6E
:101C980000F02AFC57F8080C00F026FC57F8040C52
:101CA80000F022FC00230393204600F01BFD039B59
:101CB80001330393039BB3F5803F02D00028F3D18F
:101CC80000E0E8B90426304600F00CFD0028FAD000
:101CD80000F010FC48F8100C00F00CFC48F80C0C54
:101CE80000F008FC48F8080C00F004FC48F8040C64
:101CF800CBEB0803994505D9103708F11008BCE764
:101D08004FF0000A4FF4403000F0CCFB012000F007
:101D1800DBFB00F0DFFC002834D0002000BA00F024
:101D2800E3FB009B18BA00F0DFFB002000BA00F0CC
:101D3800DBFB019B18BA00F0D7FB0424204600F017
:101D4800D1FC0028FAD000F0D5FB239B186000F0E6
:101D5800D1FB239B586000F0CDFB239B986000F0DB
:101D6800C9FB239BD860002000F0AEFB50460AE078
:101D7800002008E0002006E0002004E0002002E047
:101D8800002000E0002015B0BDE8F08F2DE9F04FED
:101D9800A3B006461D46BDF8B080DDF8B8A02F9F59
:101DA800309CDDF8C4E0DDF8D0B000231193329800
:101DB80003900D930E930F93109309930A930B932B
:101DC8000C930593069307930893E4B3B4F57F4FF8
:101DD80008D2230A8EF800308EF80140A01C4FF07C
:101DE800020C11E0FF238EF80030FE238EF801303C
:101DF80000238EF802308EF803308EF804308EF807
:101E08000540A01D4FF0060C002800F0D7820023E3
:101E1800F444FC5C0CF8034001338342F9D110F020
:101E28000F0F00F0C88220F00F041034A04205D82C
:101E380000230EF800300130A042FAD9774614B1D9
:101E480040238DF83430C2F10E0000F007009DF8F1
:101E5800343018435FFA8BF3023B03EBD373C3F3BD
:101E6800420340EAC3038DF83430134602B101E05F
:101E780000200EE000230133C81810F801EC0DA86B
:101E880003F800E09342F6D10C2A98BF1346EFD925
:101E980004E001330DA958540C2BFAD94FEA1A2340
:101EA8008DF842308DF843A09DF8343003F00703D5
:101EB8008DF824300132012A07D901230DA9585C75
:101EC80009A9585401339342F8D19DF8333043F0AF
:101ED80001038DF8333016A800F0C8FAB8F1C00F26
:101EE80014D0B8F5807F27D0B8F1800F3FD10023F8
:101EF80021932B681BBA1A936B681BBA1B93AB68A8
:101F08001BBA1C93EB681BBA1D9330E04FF4807327
:101F180021932B681BBA18936B681BBA1993AB688B
:101F28001BBA1A93EB681BBA1B932B691BBA1C9339
:101F38006B691BBA1D931AE04FF4007321932B6849
:101F48001BBA16936B681BBA1793AB681BBA189326
:101F5800EB681BBA19932B691BBA1A936B691BBAE6
:101F68001B93AB691BBA1C93EB691BBA1D93099AA7
:101F7800029213BA12930A9B1BBA13930B9B1BBAB8
:101F880014930C9B1BBA1593012E40F0FD8000F0B2
:101F980093FA16A800F056FA12A800F071FA002574
:101FA8001E954FF008131F93802320931EA800F05E
:101FB80015FA284600F076FA0D9800F095FA0E9872
:101FC80000F092FA0F9800F08FFA109800F08CFA4F
:101FD800012000F079FA00F07DFB0128FBD0002CED
:101FE8003DD04FF4803000F05DFA012000F06CFA2B
:101FF80000F070FB002800F0D28110370026012580
:10200800284600F06FFB0028FAD057F8100C00F0B3
:102018006BFA57F80C0C00F067FA57F8080C00F048
:1020280063FA57F8040C00F05FFA10361037A6422E
:10203800E6D3002311931024204600F053FB814679
:10204800119B01331193119BB3F5803F01D00028F8
:10205800F2D1D9F1010938BF4FF0000901E04FF082
:102068000109BAF1000F62D04FF4003000F01AFAFB
:10207800012000F029FA00F02DFB002800F09181E2
:10208800B9F1000F53D02D9B03F11007329800F1DE
:10209800100801251024CDF80490DDF80C9028468E
:1020A80000F020FB0028FAD057F8100C00F01CFABA
:1020B80057F80C0C00F018FA57F8080C00F014FA4E
:1020C80057F8040C00F010FA00221192204600F094
:1020D80009FB119B01331193119BB3F5803F02D08B
:1020E8000028F3D100E0E8B90426304600F0FAFAF7
:1020F8000028FAD000F0FEF948F8100C00F0FAF9C0
:1021080048F80C0C00F0F6F948F8080C00F0F2F961
:1021180048F8040CC9EB0803534506D2103708F1F8
:102128001008BCE74FF0000901E0DDF804904FF417
:10213800403000F0B7F9012000F0C6F900F0CAFA03
:10214800002800F03081029800F0CEF90A9800F0DB
:10215800CBF90B9800F0C8F90C9820F0807000F0CB
:10216800C3F90424204600F0BDFA0028FAD000F094
:10217800C1F9059000F0BEF9069000F0BBF9079090
:1021880000F0B8F90890FAE000F096F916A800F007
:1021980059F912A800F074F904231E934FF008139C
:1021A8001F93802320931EA800F018F9002000F048
:1021B80079F90D9800F098F90E9800F095F90F98B4
:1021C80000F092F9109800F08FF9012000F07CF9E6
:1021D80000F080FA0128FBD0002C3DD04FF480306D
:1021E80000F060F9012000F06FF900F073FA0028A0
:1021F80000F0DB80103700260125284600F072FA2F
:102208000028FAD057F8100C00F06EF957F80C0CAB
:1022180000F06AF957F8080C00F066F957F8040C52
:1022280000F062F910361037A642E6D30023119366
:102238001024204600F056FA8146119B0133119371
:10224800119BB3F5803F01D00028F2D1D9F10109E3
:1022580038BF4FF0000901E04FF00109BAF1000F53
:1022680062D04FF4003000F01DF9012000F02CF985
:1022780000F030FA002800F09A80B9F1000F53D02E
:102288002D9B03F11007329800F110080125102446
:10229800CDF80490DDF80C90284600F023FA0028C9
:1022A800FAD057F8100C00F01FF957F80C0C00F092
:1022B8001BF957F8080C00F017F957F8040C00F050
:1022C80013F900221192204600F00CFA119B0133F9
:1022D8001193119BB3F5803F02D00028F3D100E0A1
:1022E800E8B90426304600F0FDF90028FAD000F0DD
:1022F80001F948F8100C00F0FDF848F80C0C00F053
:10230800F9F848F8080C00F0F5F848F8040CC9EB9F
:1023180008039A4506D9103708F11008BCE74FF0B2
:10232800000901E0DDF804904FF4403000F0BAF8FD
:10233800012000F0C9F800F0CDF9002839D0029842
:1023480000F0D2F80A9800F0CFF80B9800F0CCF81B
:102358000C9820F0807000F0C7F80424204600F0A4
:10236800C1F90028FAD000F0C5F8059000F0C2F8CD
:10237800069000F0BFF8079000F0BCF80890BBF199
:10238800000F07D00023339905AA9A5CCA54013379
:102398005B45F9D1002000F097F8484611E000208D
:1023A8000FE000200DE000200BE0002009E00020F5
:1023B80007E0002005E07746044641E577460446F5
:1023C80041E523B0BDE8F08F08B51020012102F0E7
:1023D800D9FC1020002102F0D5FC08BD154B1A6865
:1023E80022F4002222F038021A60196842680A436F
:1023F8001A601A6822F0C0021A60196882680A43D3
:102408001A60436833F008030AD0102B08D0094B30
:102418001A6822F440721A601968C2680A431A607E
:10242800044B1A6822F004021A60196802680A4309
:102438001A60704700000650002303604360836001
:10244800C36070470268084B1A6242685A62826821
:102458009A62C268DA6202691A6342695A638269D7
:102468009A63C269DA63704700000650002303606C
:1024780043608360C360036143618361C3617047E4
:102488000268044B1A6442685A6482689A64C26893
:10249800DA647047000006500023036043608360DD
:1024A800C3607047034B1A6822F440321043186027
:1024B800704700BF00000650024B1A6842F4804281
:1024C8001A6070470000065028B1064B1A6842F49B
:1024D80000421A607047034B1A6822F400421A60DF
:1024E800704700BF00000650014B9860704700BF5E
:1024F80000000650014BD868704700BF0000065026
:1025080070B483B000230193394B1A6922F0010299
:102518001A611B6803F00803002B0CBF1524112453
:10252800334E4FF6FF75736804EA0302019B0133CB
:102538000193019BAB4201D0012AF4D12C4B5B687B
:102548001C40012C50D12A4B1A6922F002021A6150
:102558001A6822F400421A601A6822F07F4222F4B4
:10256800740222F47C4222F0030202601A6C426078
:102578005A6C82609A6CC260DA6C02610A684261C5
:102588004A6882618A68C261CA6802620A694262EC
:102598004A6982628A69C262CA6902631A6D4263C1
:1025A8005A6D82639A6DC263DA6D02641A6E426470
:1025B8005A6E82649A6EC264DA6E02651A6F426558
:1025C8005A6F82659A6FC265DA6F0266D3F8802007
:1025D8004266D3F884208266D3F88820C266D3F88E
:1025E8008C300367012000E0002003B070BC704706
:1025F800000006500268214B1A6042691A6282691B
:102608005A62C2699A62026ADA62426A1A63826A22
:102618005A63C26A9A63026BDA6342681A64826810
:102628005A64C2689A640269DA64426B1A65826BFA
:102638005A65C26B9A65026CDA65426C1A66826CDE
:102648005A66C26C9A66026DDA66426D1A67826DC6
:102658005A67C26D9A67026EDA67426EC3F88020C5
:10266800826EC3F88420C26EC3F88820026FC3F854
:102678008C201A6842F400421A6070470000065025
:1026880021B1064B1A69104318617047034B1A6948
:1026980022EA000000F0FF001861704700000650B1
:1026A80021B1064B5A69104358617047034B5A6968
:1026B80022EA000000F0FF00586170470000065051
:1026C800034BDB6918420CBF00200120704700BF94
:1026D80000000650024B1868C0F3C030704700BFB6
:1026E8000000065010F0200F044B14BF9B695B6874
:1026F80003420CBF00200120704700BF00000650B5
:102708002DE9F0438FB006460C461546994600233E
:10271800019302A8FFF7AAFE012E0CBF0023042391
:102728000A9310230B9380230C930AA8FFF756FEF5
:1027380023681BBA049363681BBA059302A8FFF7C2
:1027480081FEFFF7B9FE0120FFF7BEFEFFF7C2FFCB
:10275800002839D0B9F1000F2CD00835169E08365C
:102768004FF000084746102455F8080CFFF7BCFE48
:1027780055F8040CFFF7B8FE01972046FFF7B2FFA3
:10278800019B01330193019AB2F5803F02D00028E2
:10279800F3D100E080B9FFF7ADFE46F8080CFFF76B
:1027A800A9FE46F8040C08F1080808350836C145A2
:1027B800DAD803E0012402E0002400E0012400202C
:1027C800FFF782FE204600E000200FB0BDE8F0834E
:1027D8002DE9F04393B007460E4614461D46DDF832
:1027E80068900023019306A8FFF740FE012F0CBF55
:1027F800002304230E9318230F93802310930EA80D
:10280800FFF7ECFD326812BA089273681BBA099395
:1028180006A8FFF717FE226812BA0292626812BA77
:10282800039202A8FFF72CFEFFF746FE0120FFF7F0
:102838004BFEFFF74FFF002839D0B9F1000F2CD01D
:1028480008351B9E08364FF000084746102455F8F7
:10285800080CFFF749FE55F8040CFFF745FE0197F1
:102868002046FFF73FFF019B01330193019BB3F51E
:10287800803F02D00028F3D100E080B9FFF73AFE8C
:1028880046F8080CFFF736FE46F8040C08F108086D
:1028980008350836C145DAD803E0012402E00024EF
:1028A80000E001240020FFF70FFE204600E0002092
:1028B80013B0BDE8F08300BF2DE9F0438FB00646A2
:1028C8000C46154699460023019302A8FFF7CEFD52
:1028D800012E0CBF002304230A9300230B938023AB
:1028E8000C930AA8FFF77AFD23681BBA0493636860
:1028F8001BBA0593A3681BBA0693E3681BBA079330
:1029080023691BBA089363691BBA099302A8FFF7E6
:1029180099FDFFF7D1FD0120FFF7D6FDFFF7DAFE9D
:10292800002839D0B9F1000F2CD00835169E08368A
:102938004FF000084746102455F8080CFFF7D4FD5F
:1029480055F8040CFFF7D0FD01972046FFF7CAFEA3
:10295800019B01330193019AB2F5803F02D0002810
:10296800F3D100E080B9FFF7C5FD46F8080CFFF782
:10297800C1FD46F8040C08F1080808350836C145B9
:10298800DAD803E0012402E0002400E0012400205A
:10299800FFF79AFD204600E000200FB0BDE8F08365
:1029A8002DE9F04393B007460C4616461D46DDF860
:1029B80068900023019306A8FFF758FD012F0CBF6C
:1029C800002304230E9308230F93802310930EA84B
:1029D800FFF704FD23681BBA089363681BBA0993C1
:1029E800A26812BA0A92E26812BA0B92226912BA63
:1029F8000C9263691BBA0D9306A8FFF723FD326892
:102A080012BA029273681BBA039302A8FFF738FD43
:102A1800FFF752FD0120FFF757FDFFF75BFE002887
:102A280039D0B9F1000F2CD008351B9E08364FF06D
:102A380000084746102455F8080CFFF755FD55F8CF
:102A4800040CFFF751FD01972046FFF74BFE019B51
:102A580001330193019BB3F5803F02D00028F3D1E5
:102A680000E080B9FFF746FD46F8080CFFF742FD85
:102A780046F8040C08F1080808350836C145DAD8C4
:102A880003E0012402E0002400E001240020FFF715
:102A98001BFD204600E0002013B0BDE8F08300BF16
:102AA80008B54FF00050012102F088F94FF00050AE
:102AB800002102F083F908BD30B40A4B1A6840F6C9
:102AC800FE75854022EA05054C680A6814438A6841
:102AD8002243C9680A4302FA00F02843186030BC50
:102AE800704700BF007400400023036043608360A8
:102AF800C360704739B1084B1A68012101FA00F028
:102B0800104318607047044B1A68012101FA00F05D
:102B180022EA0000186070470074004041B1094B78
:102B28005A680009012101FA00F010435860704703
:102B3800044B5A680009012101FA00F022EA00005A
:102B4800586070470074004028B1064B5A6842F03C
:102B580003025A607047034B5A6822F003025A6016
:102B6800704700BF007400402AB1064B1A688140C4
:102B7800114319607047034B1A68814022EA01012A
:102B8800196070470074004082B000230193054B20
:102B98000193019B083318440190019B196002B00E
:102BA800704700BF0074004082B000230193054BBA
:102BB8000193019B143318440190019B196002B0E2
:102BC800704700BF0074004008280CBF42EA01218A
:102BD80042EA0141014BC150704700BF20740040D8
:102BE80082B000230193064B0193019B2C3303EB26
:102BF80090000190019B186880B202B0704700BF36
:102C08000074004041B1094B1A684FF4805101FA31
:102C180000F0104318607047044B1A684FF4805155
:102C280001FA00F022EA00001860704700740040C2
:102C38002AB1064B1A688140114319607047034B4B
:102C48001A68814022EA0101196070470074004047
:102C5800034B5B6B814019420CBF00200120704779
:102C6800007400408140014B596370470074004074
:102C7800064B1A6881405B6B194204D011420CBFA5
:102C88000020012070470020704700BF00740040FA
:102C98008140014B5963704700740040014B18682C
:102CA800000C7047002004E0024B1868C0F30B00CA
:102CB800704700BF002004E021B1054B5A6810435B
:102CC80058607047024B5A6822EA00005860704703
:102CD800002004E021B1054B9A68104398607047C2
:102CE800024B9A6822EA000098607047002004E0CE
:102CF80021B1054BDA681043D8607047024BDA6897
:102D080022EA0000D8607047002004E0054B00224A
:102D18001A60DA601F2159619A61DA611A625A628F
:102D2800704700BF0000055010B40F4B1A6822F41A
:102D3800804222F001021A601A6822F47F6222F0AF
:102D4800020244880188214384882143C48821439E
:102D580004892143448921438089014389B20A4374
:102D68001A605DF8044B704700000550002303808B
:102D780043808380C380038143818381704700BF80
:102D88000288438843EA0242034B1A628188C28858
:102D980042EA01425A6270470000055028B1064BCA
:102DA8001A6842F004021A607047034B1A6822F04E
:102DB80004021A60704700BF00000550437882780B
:102DC800120442EA032203781A43C37842EA0362F0
:102DD800014B9A61704700BF0000055028B1064BAF
:102DE8001A6842F008021A607047034B1A6822F00A
:102DF80008021A60704700BF0000055028B1064B52
:102E08001A6842F480421A607047034B1A6822F429
:102E180080421A60704700BF0000055028B1064B79
:102E28001A6842F001021A607047034B1A6822F0D0
:102E380001021A60704700BF00000550014B986AF4
:102E4800704700BF0000055021B1064BDA681043F7
:102E5800D8607047034BDA68C04380B21040D8602E
:102E6800704700BF00000550030B02D1064B9B685A
:102E780004E0022B044B0CBF5B681B6903420CBFC8
:102E880000200120704700BF00000550014B586129
:102E9800704700BF00000550034B1B6918420CBF68
:102EA80000200120704700BF00000550014B586109
:102EB800704700BF00000550036823F0010303605A
:102EC8000023036043608360C3600361212343617F
:102ED8003B4B984203D13D22103B9A607047394BD7
:102EE800984204D14FF47462283B9A607047364B7D
:102EF800984204D14FF47412403B9A607047334BA8
:102F0800984204D14FF07462583B9A607047304B36
:102F1800984203D12F4A703BDA6070472E4B984293
:102F280003D12E4A883BDA6070472D4B984203D173
:102F38002C4AA03BDA6070472B4B984204D14FF0E3
:102F48003D52B83BDA607047284B984203D13D2286
:102F5800103B9A607047264B984204D14FF4746234
:102F6800283B9A607047234B984204D14FF474125F
:102F7800403B9A607047204B984204D14FF07462EE
:102F8800583B9A6070471D4B984203D1114A703BD9
:102F9800DA6070471A4B984203D1104A883BDA60CE
:102FA8007047184B984203D10E4AA03BDA6070472D
:102FB800154B984203D14FF03D52B83BDA60704749
:102FC80010600240286002404060024058600240A1
:102FD800706002403D00002088600240400F0020E1
:102FE800A060024000003D20B8600240106402402A
:102FF8002864024040640240586402407064024001
:1030080088640240A0640240B864024010B40268B8
:10301800134B1340CC680A6814434A6914438A69FD
:103028001443CA6914430A6A14434A6A14438A6AED
:1030380014434A6B14438A6B224313430360446965
:1030480024F007040A6BCB6A1343234343610B69DB
:1030580043604B6883608B68C3605DF8044B7047BE
:103068003F801CF00023036043608360C3600361FA
:1030780043618361C361036243628362C362036322
:1030880043638363704700BF21B1036843F00103C2
:1030980003607047036823F001030360704700BFB3
:1030A80021B1036843F4004303607047036823F4C5
:1030B80000430360704700BF21B1036843F0200359
:1030C80003607047036823F020030360704700BF64
:1030D80041607047406880B2704700BF22B1036802
:1030E80043F40023036003E0036823F40023036030
:1030F8000161704721B1036843F48023036070477E
:10310800036823F480230360704700BF0AB101619C
:103118007047C160704700BF0068C0F3C040704787
:10312800006800F001007047406900F038007047FF
:1031380010B40B4B0B4A0C4CA0428CBF10461846DF
:1031480011F0005F14BF4368036821F0F02121F0FB
:10315800821119420CBF002001205DF8044B704712
:1031680000600240006402400F64024010B4094B42
:10317800094A0A4CA0428CBF1046184611F0005F5D
:1031880021F0F02121F0821114BFC16081605DF847
:10319800044B704700600240006402400F64024024
:1031A80011F0800F0ED032B1436943F080034361C0
:1031B80080290AD17047436923F08003436180293D
:1031C80009D1704780290CD02AB1036801F01E018B
:1031D800194301607047036801F01E0123EA0101E9
:1031E8000160704710B4134B134A144CA04298BFA7
:1031F8001A4621F0F02323F0C3132BB1006800F026
:103208001E0000EAD12002E0406900F0800011F0C1
:10321800005F14BF5368136821F0F02121F0821178
:10322800194203D0003018BF012000E000205DF8EB
:10323800044B704700600240006402400F64024083
:1032480010B4094B094A0A4CA0428CBF10461846D4
:1032580011F0005F21F0F02121F0821114BFC1604C
:1032680081605DF8044B70470060024000640240D2
:103278000F640240044B00221A605A609A60DA60B8
:10328800024A5A61704700BF003C0140FFFF7F00BF
:1032980010B48379002B33D0204B1968026821EAD7
:1032A80002021A605968026821EA02025A60027929
:1032B80002F1804202F59E321468016821431160D0
:1032C8009968026821EA02029A60D968026821EACC
:1032D8000202DA604379102B09D1104B9968026811
:1032E8000A439A60D96802680A43DA6012E003F177
:1032F800804303F59E33196802680A431A6009E09F
:10330800037903F1804303F59E331A68016822EAC2
:1033180001021A605DF8044B704700BF003C014091
:103328000023036003710C2242718371704700BF50
:10333800024B1A6910431861704700BF003C0140F6
:10334800034B5B6918420CBF00200120704700BF87
:10335800003C0140014B5861704700BF003C0140F0
:10336800054B1A685B69184204D010420CBF002054
:103378000120704700207047003C0140014B586114
:10338800704700BF003C0140C0B2014B1870704745
:10339800003C024028B1064B1A6842F480721A6059
:1033A8007047034B1A6822F480721A60704700BF96
:1033B800003C024028B1064B1A6842F400721A60B9
:1033C8007047034B1A6822F400721A60704700BFF6
:1033D800003C024028B1064B1A6842F480621A6029
:1033E8007047034B1A6822F480621A60704700BF66
:1033F800003C0240024B1A6842F400621A607047AF
:10340800003C0240024B1A6842F480521A6070472E
:10341800003C0240054B1B69002B05DA034B044AAC
:103428005A6002F188325A60704700BF003C02407F
:1034380023016745024B1A6942F000421A6170473E
:10344800003C0240054B5B6913F0010F05D0034BAC
:10345800034A9A6002F144329A607047003C024085
:103468003B2A1908024B5A6942F001025A61704717
:10347800003C0240044B1A7802F0F3021A701A78E2
:1034880010431870704700BF143C0240024B586943
:10349800C0F34710704700BF003C0240014B18883A
:1034A80080B27047163C0240014B188880B27047C2
:1034B8001A3C0240034B1878C0B2AA3818BF012042
:1034C800704700BF153C0240024B187800F00C0012
:1034D800704700BF143C024021B1054B1A691043E4
:1034E80018617047024B1A6922EA00001861704798
:1034F800003C0240034BDB6818420CBF002001204F
:10350800704700BF003C0240014BD860704700BFC5
:10351800003C02400E4BDB6813F4803F12D10C4B89
:10352800DB6813F0100F0FD1094BDB6813F0EF0FB6
:103538000CD1074BDB6803F00203002B0CBF0820FB
:103548000720704701207047052070470620704704
:10355800003C024000B583B008238DF80730FFF720
:10356800D9FF8DF807009DF80730DBB2012B08D191
:10357800FFF7D0FF8DF807009DF80730DBB2012B6D
:10358800F6D09DF8070003B05DF804FB70B505465A
:1035980041B1012908D0022914BF4FF440764FF4F5
:1035A800007603E0002601E04FF48076FFF7D2FFB3
:1035B80008281ED10F4C236923F440732361236923
:1035C8001E432661236923F0F8032361236943F02E
:1035D80002031D432561236943F480332361FFF708
:1035E800B9FF236923F002032361236923F0F80359
:1035F800236170BD003C024008B5FFF7ABFF08BD72
:10360800F8B5074614461D46FFF7A4FF082814D14D
:103618000A4E336923F440733361336943F44073CA
:103628003361336943F001033361C7E90045FFF7AC
:1036380091FF336923F001033361F8BD003C024078
:1036480070B505460E46FFF785FF082813D10A4CCA
:10365800236923F440732361236943F400732361CE
:10366800236943F0010323612E60FFF773FF236989
:1036780023F00103236170BD003C024070B505468C
:103688000E46FFF767FF082813D10A4C236923F475
:1036980040732361236943F480732361236943F0F2
:1036A800010323612E80FFF755FF236923F00103EF
:1036B800236170BD003C024070B505460E46FFF719
:1036C80049FF082811D1094C236923F44073236169
:1036D80023692361236943F0010323612E70FFF7F7
:1036E80039FF236923F00103236170BD003C0240C8
:1036F80038B505460C46FFF72DFF08280CD134B124
:10370800064B1A8892B222EA05051D8038BD034B84
:103718001A881543ADB21D8038BD00BF163C024063
:1037280038B505460C46FFF715FF08280CD134B10B
:10373800064B1A8892B222EA05051D8038BD034B54
:103748001A881543ADB21D8038BD00BF1A3C02402F
:1037580010B50446FFF7FEFE082804BF014B1C7095
:1037680010BD00BF153C024070B506460C46154614
:10377800FFF7F0FE082807D1044B1A7802F00F0271
:10378800164335432C431C7070BD00BF143C0240E7
:1037980008B5044B1A7842F002021A70FFF7DAFEF5
:1037A80008BD00BF143C0240034628B943F2DB01C0
:1037B8004FF02042116005E043F2D2014FF0204261
:1037C80042F82010581C6FF070424FF0204141F829
:1037D800202001F5827141F82320704710B4036856
:1037E800816842681143C268114302691143426902
:1037F800114382691143C2691143026A1143426A43
:103808001143826A1143C26A1143026B0A434FF0A3
:10381800204141F823208368082B06D103689B00C8
:103828000B441A6842F040021A6003685C1C436B40
:1038380099691A6811435A6841EA02119A6841EA7B
:103848000221DA6841EA02411A6941EA02525B69D7
:1038580042EA03624FF0204141F82420C36AB3F5DD
:10386800804F14D10468836B99691A6811435A68A8
:1038780041EA02119A6841EA02211A6941EA0252B0
:103888005B6942EA0362064B43F8242005E00268BC
:103898006FF07041024B43F822105DF8044B7047FB
:1038A800040100A010B40023036002224260836078
:1038B800C360036143618361C36103624FF4805253
:1038C80042624FF400528262C3620363416B0F226B
:1038D8000A60416B4A60446BFF21A160446BE2605F
:1038E800446B2261446B6261446BA361846B226008
:1038F800846B6260846BA160816BCA60816B0A61B2
:10390800816B4A61826B93615DF8044B704700BF1D
:1039180039B1800000F12040036843F001030360DF
:103928007047800000F120400268024B134003609A
:10393800704700BFFEFF0F0010280CBF054B064B59
:1039480018221A6040225A604FF0FC329A60DA60FE
:10395800704700BF600000A0800000A030B442683B
:10396800836842EA030444F00804C3681C430369FB
:103978001C43436944EA4324836944EA4334C369E2
:1039880059689A68120442EA01211A680A43D968F8
:1039980042EA0165036A59689A68120442EA0121F9
:1039A8001A680A43DB6842EA0362006810280CBF01
:1039B800034B044B1C609D60DA6030BC704700BF4D
:1039C800600000A0800000A0102303600023436073
:1039D8008360C360036143618361C269FC23136030
:1039E800C2695360C2699360C269D360026A136096
:1039F800026A5360026A9360026AD360704700BF2C
:103A080041B110280CBF084B084B1A6842F0040259
:103A18001A60704710280CBF034A044A1168044B07
:103A28000B401360704700BF600000A0800000A03A
:103A3800FBFF0F0041B110280CBF084B084B1A6858
:103A480042F040021A60704710280CBF034A044A2B
:103A58001168044B0B401360704700BF600000A062
:103A6800800000A0BFFF0F0010280CBF014B024BC5
:103A780058697047600000A0800000A0054B18221C
:103A88001A6000225A604FF0FC329A60DA601A61BC
:103A9800704700BFA00000A010B4036843F01002F4
:103AA800436842EA4322836842EA4332144B1A606D
:103AB800C26854689168090441EA042411682143E2
:103AC800D46841EA046199600269546891680904FC
:103AD80041EA042411682143D46841EA0461D960A9
:103AE800426950689168090441EA0020116801435D
:103AF800D06841EA006119615DF8044B704700BF66
:103B0800A00000A00023036043608360C268FC2318
:103B18001360C2685360C2689360C268D360026968
:103B2800136002695360026993600269D360426955
:103B3800136042695360426993604269D360704779
:103B480028B1064B1A6842F004021A607047034A0B
:103B58001168034B0B401360704700BFA00000A022
:103B6800FBFF0F007AB1102804D1104B5A6811439B
:103B780059607047B0F5807F0CBF0D4B0D4B5A68EC
:103B8800114359607047102805D1084B5A6822EA3A
:103B9800010159607047B0F5807F0CBF044B054B9D
:103BA8005A6822EA01015960704700BF600000A00E
:103BB800800000A0A00000A0102802D1064B5B687E
:103BC80005E0B0F5807F0CBF044B054B5B680B42EA
:103BD8000CBF002001207047600000A0800000A0FA
:103BE800A00000A0102805D1074B5A6822EA01015D
:103BF80059607047B0F5807F0CBF044B044B5A687E
:103C080022EA010159607047600000A0800000A00E
:103C1800A00000A0102802D1094B5B6805E0B0F5B0
:103C2800807F0CBF074B084B5B680B4205D013EA3B
:103C3800D1010CBF0020012070470020704700BF51
:103C4800600000A0800000A0A00000A0102805D1FE
:103C5800074B5A6822EAD10159607047B0F5807F56
:103C68000CBF044B044B5A6822EAD10159607047D3
:103C7800600000A0800000A0A00000A008B5374B9D
:103C8800984208D10120014601F06EF80120002178
:103C980001F06AF808BD324B984208D10220012190
:103CA80001F062F80220002101F05EF808BD2D4BFA
:103CB800984208D10420012101F056F8042000217F
:103CC80001F052F808BD284B984208D1082001217C
:103CD80001F04AF80820002101F046F808BD234BFE
:103CE800984208D11020012101F03EF8102000214F
:103CF80001F03AF808BD1E4B984208D12020012156
:103D080001F032F82020002101F02EF808BD194BEF
:103D1800984208D14020012101F026F840200021D6
:103D280001F022F808BD144B984208D180200121E7
:103D380001F01AF88020002101F016F808BD0F4B99
:103D4800984209D14FF48070012101F00DF84FF429
:103D58008070002101F008F808BD00BF0000024093
:103D68000004024000080240000C0240001002401B
:103D78000014024000180240001C024000200240CB
:103D8800F0B400230125032605FA03F20C68144059
:103D9800944238D107685A0006FA02F4E4432740EF
:103DA8000760076891F804C00CFA02FC4CEA0707A0
:103DB80007600F79013FFFB2012F16D887683C4092
:103DC800846087684C7994403C43846047689CB21F
:103DD80005FA04FC27EA0C074760476891F806C013
:103DE8000CFA04F4A4B23C434460C7689CB2640073
:103DF80006FA04F427EA0404C460C468CF7907FA11
:103E080002F22243C2600133102BBDD1F0BC7047CF
:103E18004FF6FF7303600023037143718371C3710D
:103E2800704700BF82B04FF480330193019B0B436E
:103E38000193019BC361C161019BC361C369019384
:103E4800C369019302B07047036919420CBF00208F
:103E580001207047006980B2704700BF436919426A
:103E68000CBF002001207047406980B2704700BF36
:103E780001837047418370470AB1018370474183CA
:103E8800704700BF416170474369594041617047BD
:103E980010B401F007039B00C90800EB8100046A15
:103EA8000F21994024EA01010162016A9A401143F5
:103EB80001625DF8044B704708B52020012100F02D
:103EC80061FF2020002100F05DFF08BD104B1A683B
:103ED80022F4802222F0F0021A6019680268114365
:103EE8008268114342680A431A604368402B08D12C
:103EF800074B1A6822F480321A601968C2680A43AC
:103F08001A60034B1A6842F004021A60704700BF37
:103F1800000406500023036043608360C360704759
:103F2800024B1A6842F004021A60704700040650F7
:103F3800044B9A6822F01F029A609A6810439860AE
:103F4800704700BF00040650014B5860704700BF1F
:103F580000040650024B1868C0F30320704700BFE6
:103F680000040650094BDA6802601A6942605A690F
:103F780082609A69C260DB690361054B5A694261D4
:103F88009A698261DB69C361704700BF000406500B
:103F980010070650024B9A6842F480729A60704784
:103FA80000040650094B1A6A02609A6842601B684E
:103FB80040F8083F0023054903F13E0251F822204A
:103FC80040F8042F0133362BF6D170470004065011
:103FD80010B402680C4B1A6242689A6050F8082FB5
:103FE8001A601A6842F004021A600023064C50F85E
:103FF800041F03F13E0244F822100133362BF6D198
:104008005DF8044B704700BF0004065028B1064B0A
:104018001A6822F400521A607047034B1A6842F477
:1040280000521A60704700BF0004065028B1064BC2
:104038001A6842F008021A607047034B1A6822F0A7
:1040480008021A60704700BF0004065021B1054BF2
:104058001A6A104318627047024B1A6A22EA000073
:10406800186270470004065010F4805F044B14BFB8
:104078001B685B6A03420CBF00200120704700BF29
:1040880000040650C043014B5862704700040650B4
:10409800044B5A6A1B6A134003420CBF00200120DC
:1040A800704700BF00040650C043014B5862704778
:1040B80000040650F0B58FB007460D46164600249A
:1040C800ADF80640009401F00303DB00ADF80630BC
:1040D800FFF7F2FE80230A930B9420230C930AA87F
:1040E800FFF7F4FEBDF8060080B2FFF721FF2DB1FF
:1040F8003859FFF729FF0434A542F9D8FFF74AFFDA
:1041080008242046FFF7B0FF0246009B01330093C6
:10411800009BB3F5803F02D00028F2D101E00020D7
:1041280082B902A8FFF71EFF029B1BBA3360039BEC
:104138001BBA7360049B1BBAB360059B1BBAF36080
:104148000120FFE70FB0F0BD2DE9F0438FB0064620
:104158000D4690461F460023ADF80630ADF80430F2
:10416800009307F00303DB00ADF8063001F003030A
:10417800DB00ADF80430FFF79FFE80230A9340234D
:104188000B9320230C93402D8CBF4FF480330023D6
:104198000D930AA8FFF79AFEBDF8040080B2FFF756
:1041A800C7FE35B100243059FFF7CEFE0434A542CE
:1041B800F9D8FFF7EFFE4FF008094846FFF754FF1C
:1041C8000346009C01340094009CB4F5803F02D063
:1041D8000028F2D102E00020002B57D1BDF80600DC
:1041E80080B2FFF7A5FE3FB1002458F80400FFF79E
:1041F800ABFE0434A742F8D8FFF7CCFE00230093A7
:1042080008242046FFF730FF0246009B0133009345
:10421800009BB3F5803F02D00028F2D102E00020D5
:10422800002A33D1BDF8040080B2FFF781FE35B112
:1042380000243059FFF788FE0434A542F9D8FFF767
:10424800A9FE0023009308242046FFF70DFF02462D
:10425800009B01330093009BB3F5803F02D00028F8
:10426800F2D101E000208AB902A8FFF77BFE029B89
:104278001BBA169A1360039B1BBA5360049B1BBAA4
:104288009360059B1BBAD3600120FFE70FB0BDE820
:10429800F08300BFF0B58FB007460D4616460024E0
:1042A800ADF80640009401F00303DB00ADF80630DA
:1042B800FFF702FE0A940B9420230C930AA8FFF739
:1042C80005FEBDF8060080B2FFF732FE2DB1385961
:1042D800FFF73AFE0434A542F9D8FFF75BFE08243D
:1042E8002046FFF7C1FE0246009B01330093009B66
:1042F800B3F5803F02D00028F2D101E000209AB93E
:1043080002A8FFF72FFE029B1BBA3360039B1BBA60
:104318007360049B1BBAB360059B1BBAF360069BD2
:104328001BBA33610120FFE70FB0F0BD2DE9F04360
:104338008FB006460D4690461F460024ADF806404D
:10434800ADF80440009403F00303DB00ADF8063039
:1043580001F00303DB00ADF80430FFF7ADFD0A946C
:1043680040230B9320230C93402D8CBF4FF48033B4
:1043780000230D930AA8FFF7A9FDBDF8040080B239
:10438800FFF7D6FD35B100243059FFF7DDFD0434C1
:10439800A542F9D8FFF7FEFD4FF008094846FFF798
:1043A80063FE0346009C01340094009CB4F5803FF2
:1043B80002D00028F2D102E00020002B5AD1BDF82B
:1043C800060080B2FFF7B4FD3FB1002458F804009E
:1043D800FFF7BAFD0434A742F8D8FFF7DBFD002346
:1043E800009308242046FFF73FFE0246009B013356
:1043F8000093009BB3F5803F02D00028F2D102E081
:104408000020002A36D1BDF8040080B2FFF790FDE5
:1044180035B100243059FFF797FD0434A542F9D887
:10442800FFF7B8FD0023009308242046FFF71CFE81
:104438000246009B01330093009BB3F5803F02D0F6
:104448000028F2D101E00020A2B902A8FFF78AFDF6
:10445800029B1BBA169A1360039B1BBA5360049BFA
:104468001BBA9360059B1BBAD360069B1BBA1361EA
:104478000120FFE70FB0BDE8F08300BF08B5154B7A
:1044880098420AD14FF40010012100F097FC4FF434
:104498000010002100F092FC08BD0F4B98420AD191
:1044A8004FF48000012100F089FC4FF480000021C6
:1044B80000F084FC08BD094B984209D14FF4000074
:1044C800012100F07BFC4FF40000002100F076FC95
:1044D80008BD00BF0054004000580040005C004088
:1044E800F0B585B004460D46868826F03F063604AA
:1044F800360C684600F066FB02992C48A0FB013098
:10450800800C87B23E43A680238823F001031B0456
:104518001B0C23802A68264B9A4209D85300B1FB0A
:10452800F3F39BB2032B98BF04230137278424E0BD
:10453800EE884BF6FF739E4205D102EB4202B1FBB7
:10454800F2F39BB208E002EB820202EB8202B1FBBB
:10455800F2F39BB243F48043C3F30B020AB943F06E
:10456800010343F400434FF4967200FB02F0114A32
:1045780082FB0010801101302084A38323889BB222
:1045880043F001032380228892B222F4816222F050
:1045980002026989AB880B4313439BB223802A89A3
:1045A800AB8913439BB2238105B0F0BD83DE1B4367
:1045B800A0860100D34D621041F2883303600023C6
:1045C80083804BF6FF72C280038143814FF480439E
:1045D8008381704729B103889BB243F001030380AC
:1045E8007047038823F001031B041B0C03807047EA
:1045F80031B1838C23F010031B041B0C8384704798
:10460800838C9BB243F0100383847047838C9BB2E6
:1046180001F00F0123F00F030B438384704700BFA1
:1046280029B103889BB243F48073038070470388E1
:1046380023F480731B041B0C0380704729B1038883
:104648009BB243F4007303807047038823F400731C
:104658001B041B0C0380704712B141F0010101E0FB
:1046680001F0FE010182704729B103889BB243F42F
:10467800806303807047038823F480631B041B0C4A
:104688000380704783899BB201F0FE0123F0FE038B
:104698000B438381704700BF29B183899BB243F0E4
:1046A800010383817047838923F001031B041B0CDA
:1046B8008381704729B103889BB243F0400303808C
:1046C8007047038823F040031B041B0C03807047CA
:1046D80039B103886FEA43436FEA53439BB20380BF
:1046E80070470388C3F30E030380704729B9038812
:1046F8009BB243F0800303807047038823F0800354
:104708001B041B0C03807047B1F5804F06D0838BC8
:1047180023F480431B041B0C83837047838B9BB259
:1047280043F4804383837047B1F5006F05D1038854
:104738009BB243F4006303807047038823F400634B
:104748001B041B0C03807047B1F5005F05D103887B
:104758009BB243F4005303807047038823F400534B
:104768001B041B0C0380704729B103889BB243F0DC
:10477800100303807047038823F010031B041B0CED
:104788000380704701827047008AC0B2704700BF3B
:1047980029B103889BB243F4805303807047038890
:1047A80023F480531B041B0C03807047B1F5006F82
:1047B80005D103889BB243F40063038070470388E4
:1047C80023F400631B041B0C0380704729B1038882
:1047D8009BB243F0200303807047038823F0200333
:1047E8001B041B0C03807047008BC0F30720704725
:1047F80029B183889BB243F4006383807047838820
:1048080023F400631B041B0C8380704729B1838841
:104818009BB243F4805383807047838823F480538A
:104828001B041B0C8380704782B000230193019006
:10483800019B19440191019B188880B202B070470E
:1048480022B183889BB219438180704783889BB2C9
:1048580023EA010181807047828A92B2008B21F09D
:104868007F4342EA00401840814214BF00200120E3
:10487800704700BF838A9BB2008B43EA004020F058
:104888007F40704782B000230193009300900B0F84
:10489800019321F07F41019B1BB1009B14330093CE
:1048A80003E0090C009B18330093009B1B68194216
:1048B8000CBF0020012002B0704700BFC94389B275
:1048C8008182704783889AB2838A9BB20B4207D051
:1048D80001F0E06112EA11410CBF0020012070478D
:1048E80000207047C94389B281827047014B186024
:1048F800704700BF00300040014B5860704700BF50
:1049080000300040014B9860704700BF0030004005
:104918004AF6AA22014B1A60704700BF00300040D7
:104928004CF6CC42014B1A60704700BF0030004083
:10493800034BDB6818420CBF00200120704700BF02
:104948000030004008B54FF08050012100F036FAE1
:104958004FF08050002100F031FA08BD014B18607B
:10496800704700BF20000E42034B1A6822F0E00295
:1049780010431860704700BF00700040014B18607A
:10498800704700BF10000E42014B1860704700BF0F
:10499800A0000E42014B1860704700BFA4000E42F1
:1049A800034B1A6822F4404210431860704700BF56
:1049B80000700040014B1860704700BF24000E4291
:1049C8000A4B1A6822F0030210431860084B1A6950
:1049D80042F004021A61012901D130BF00E020BF72
:1049E800034B1A6922F004021A61704700700040F4
:1049F80000ED00E0074B1A6842F004021A601A68DA
:104A080042F002021A60044B1A6942F004021A6169
:104A180030BF70470070004000ED00E0034B5B685A
:104A280018420CBF00200120704700BF00700040F2
:104A3800024B1A6842EA8000186070470070004014
:104A48000B4B1A6842F001021A60002199601A683B
:104A580022F0A16222F480321A60064A5A60064A9D
:104A6800C3F884201A6822F480221A60D96070473B
:104A7800003802401030002400300020024B002291
:104A88001A701870704700BF02380240034B1A684A
:104A980022F0F80242EAC00018607047003802406D
:104AA800014B1860704700BF00004742084B0022C6
:104AB8001A701A70012802D0042804D07047012205
:104AC800034B1A7070470522014B1A70704700BFDC
:104AD80070380240014B1860704700BF800E474293
:104AE80010B4019C40EA0460014341EA82125B0869
:104AF800013B42EA0344024B5C605DF8044B70479B
:104B080000380240014B1860704700BF6000474200
:104B1800090741EA8010024BC3F88400704700BFC0
:104B280000380240014B1860704700BF68004742D8
:104B3800014B1860704700BF4C004742034B9A680E
:104B480022F0EC6211430843986070470038024035
:104B5800034B9A6822F078421143084398607047E3
:104B680000380240034B9A6822F003021043986011
:104B7800704700BF00380240024B986800F00C00F4
:104B8800704700BF00380240034B9A6822F0F002D9
:104B980010439860704700BF00380240034B9A6882
:104BA80022F4E05210439860704700BF003802407A
:104BB800034B9A6822F4604242EAC000986070474A
:104BC8000038024010B4294B9B6803F00C03042BF7
:104BD80005D0082B06D04BBB254B036028E0254B9E
:104BE800036025E0214B59685A6802F03F0211F42E
:104BF800800F08D05968C1F388111E4BB3FBF2F33C
:104C080003FB01F308E0194B5968C1F38811184BED
:104C1800B3FBF2F303FB01F3144A5268C2F30142F7
:104C280001325200B3FBF2F3036001E0104B036062
:104C38000E498B68C3F303130F4AD35CDBB20468D5
:104C480024FA03F343608C68C4F38224145DE4B24D
:104C580023FA04F484608968C1F34231525CD2B209
:104C6800D340C3605DF8044B704700BF0038024072
:104C78000024F40000127A001800002000F44073A9
:104C8800B3F5407F09D1084A916821F4F81120F062
:104C9800704323F440730B439360034B1A6FC0F3C4
:104CA8000B0010431867704700380240014B18602A
:104CB800704700BF3C0E4742014B1860704700BF69
:104CC800400E4742014B1860704700BF5C014742E5
:104CD800014B1860704700BFE011474221B1054BF6
:104CE8001A6B104318637047024B1A6B22EA0000D4
:104CF800186370470038024021B1054B5A6B1043C6
:104D080058637047024B5A6B22EA00005863704799
:104D18000038024021B1054B9A6B104398637047E5
:104D2800024B9A6B22EA00009863704700380240F1
:104D380021B1054B1A6C104318647047024B1A6C6A
:104D480022EA0000186470470038024021B1054B80
:104D58005A6C104358647047024B5A6C22EA0000A0
:104D6800586470470038024021B1054B1A69104356
:104D780018617047024B1A6922EA000018617047EF
:104D88000038024021B1054B5A69104358617047F9
:104D9800024B5A6922EA0000586170470038024005
:104DA80021B1054B9A69104398617047024B9A6983
:104DB80022EA0000986170470038024021B1054B93
:104DC8001A6A104318627047024B1A6A22EA0000F6
:104DD800186270470038024021B1054B5A6A1043E7
:104DE80058627047024B5A6A22EA000058627047BC
:104DF8000038024021B1054B1A6D10431865704701
:104E0800024B1A6D22EA000018657047003802400C
:104E180021B1054B5A6D104358657047024B5A6DC6
:104E280022EA0000586570470038024021B1054B5E
:104E38009A6D104398657047024B9A6D22EA0000FC
:104E4800986570470038024021B1054B1A6E10432F
:104E580018667047024B1A6E22EA000018667047FF
:104E68000038024021B1054B5A6E1043586670470E
:104E7800024B5A6E22EA000058667047003802401A
:104E880021B1054B1A78104318707047024B1A78F5
:104E980022EA0000187070470D3802404309012BC0
:104EA80002D1074B1B6804E0022B054B0CBF1B6F9C
:104EB8005B6F00F01F0023FA00F000F0010070475C
:104EC8000038024010B582B00023019331242046F7
:104ED800FFF7E4FF019B01330193019BB3F5A06F3A
:104EE80001D00028F3D03120FFF7D8FF003018BFD9
:104EF800012002B010BD00BF024B5A6F42F0807211
:104F08005A67704700380240034BDB6818420CBFF1
:104F180000200120704700BF00380240014B187084
:104F2800704700BF0E38024008B540200121FFF746
:104F380029FF40200021FFF725FF08BD28B1064BB7
:104F48001A6842F004021A607047034B1A6822F08C
:104F580004021A60704700BF00080650014B9868A9
:104F6800704700BF0008065028B1064B1A6842F087
:104F780008021A607047034B1A6822F008021A6088
:104F8800704700BF00080650034B5B6818420CBF0F
:104F980000200120704700BF000806506FEA00108B
:104FA800014B5860704700BF00080650034B5B6810
:104FB80018420CBF00200120704700BF00080650AF
:104FC800C043C0B2014B5860704700BF000806508C
:104FD800092807D900230133DBB20A38C0B20928EF
:104FE800F9D800E0002340EA0310C0B2704700BFC0
:104FF800030903EB830300F00F0000EB4300C0B28A
:10500800704700BF002303607F234360FF23836052
:10501800704700BF18B1FF22044B5A627047034B18
:10502800CA225A6253225A62704700BF00280040C1
:1050380082B0002301930F4BDB6813F0400F15D1AA
:105048004FF0FF320B4BDA601946CB6803F0400291
:10505800019B01330193019BB3F5803F01D0002AE6
:10506800F3D0044BD868C0F3801000E0012002B0F0
:10507800704700BF00280040024BDA6822F0800227
:10508800DA6070470028004010B50446104BCA2269
:105098005A6253225A62FFF7CBFF98B10C4B9A68B9
:1050A80022F040029A60996822680A439A60A268CE
:1050B8001A611A69616842EA01421A61FFF7DCFF66
:1050C800012000E00020FF22014B5A6210BD00BF02
:1050D8000028004082B0002301930F4BCA225A6275
:1050E80053225A62DA6822F0A002DA601946CB68C5
:1050F80003F02002019B01330193019BB3F5003FAC
:1051080001D0002AF3D0044BD868FF225A62C0F3BA
:10511800401002B0704700BF0028004000B583B0BF
:1051280000230193224BCA225A6253225A62FFF784
:105138007FFF002833D01E4B00221A6042F2011272
:105148005A609A6802F007029A601946CB6803F021
:105158000402019B01330193019BB3F5803F01D009
:10516800002AF3D0124BDB6813F0040F19D0104B50
:105178009A6800229A604FF6FF7159610D491961CA
:105188009A61DA611A62DA62DA635A649A64DA60F6
:105198001A64FFF79FFF003018BF012002E00020CB
:1051A80000E00020FF22024B5A6203B05DF804FBC6
:1051B80000280040FF007F0010B504460E4BCA22AD
:1051C8005A6253225A62FFF733FF78B12CB10A4B67
:1051D8009A6842F010029A6004E0074B9A6822F03D
:1051E80010029A60FFF748FF012000E00020FF222C
:1051F800014B5A6210BD00BF00280040094BCA226B
:105208005A6253225A6220B19A6842F020029A6088
:1052180004E0044B9A6802F0DF029A60FF22014B17
:105228005A6270470028004070B50C4638B9274BC1
:105238009B6813F0400F36D10023CB7033E0234B2B
:105248009B6813F0400F23D10023CB7020E01F4B45
:10525800CA225A6253225A62FFF7EAFE88B104F062
:105268007F3020F0FE40194C2060FFF705FFA3684F
:1052780013F0200F07D1FFF72DFF003018BF0120D2
:1052880002E0002000E00120FF22104B5A6270BDAE
:1052980023786078000240EA0340A3781843E47852
:1052A80040EA0444D3E72078FFF792FE0646607888
:1052B800FFF78EFE0546A078FFF78AFEE47840EAFD
:1052C800044040EA064444EA0524C0E700280040B8
:1052D8000023C370037043708370704770B50C4629
:1052E8000E4B1B68C3F305420A70C3F306264E70C3
:1052F80003F07F058D7003F480031B0CCB7058B945
:105308001046FFF775FE20703046FFF771FE60709B
:105318002846FFF76DFEA07070BD00BF0028004052
:10532800014B986A5B6870470028004070B50C46CE
:1053380000283CD14B7813F0100F25D023F0100330
:105348000A334B7020E01F4BCA225A6253225A621A
:10535800FFF76EFE88B124F07F4020F0C000194CA2
:105368006060FFF789FEA36813F0200F07D1FFF7ED
:10537800B1FE003018BF012002E0002000E001204B
:10538800FF22104B5A6270BDE078FFF721FE0646F7
:105398006078FFF71DFE0546A078FFF719FE247810
:1053A80040EA443040EA064444EA0524CBE7CB7897
:1053B8004878000240EA03408B7818430C7840EAAA
:1053C8004434C0E700280040012303708370437011
:1053D8000023C370704700BF70B50C460D4B5B6867
:1053E800C3F30742CA70C3F304264E7003F03F05A7
:1053F8008D70C3F342330B7058B91046FFF7F8FDB0
:10540800E0703046FFF7F4FD60702846FFF7F0FDC6
:10541800A07070BD002800402DE9F0410D461446EB
:1054280038B9284B9B6813F0400F2CD10023D37058
:1054380029E0244B9B6813F0400F12D10023D3704E
:105448000FE0204BCA225A6253225A62B5F5807F78
:105458000EBFD8611B4B1862FF221A4B5A62BDE877
:10546800F0816268A3681343A1780B43207843EA6C
:105478000040637840EA0320E37840EA0340237B56
:1054880040EA0360DDE72078FFF7A2FD0746607871
:10549800FFF79EFD0646A078FFF79AFD8046207B21
:1054A800FFF796FD6268A3681343E27843EA024374
:1054B80043EA080848EA074747EA062646EA00603A
:1054C800BFE700BF002800400023C370037043708B
:1054D800837083600122027343607047F8B51446F5
:1054E800B1F5807F154B0CBFDB691B6AC3F305421E
:1054F8002270C3F30627677003F07F06A67003F4D3
:105508008001090CE170C3F30565257303F0804140
:10551800A16003F08033636078B91046FFF768FD37
:1055280020703846FFF764FD60703046FFF760FD75
:10553800A0702846FFF75CFD2073F8BD00280040E6
:1055480082B000230193144BCA225A6253225A6232
:1055580021B19A6810439860012018E00E4B9A68B0
:1055680022EA00029A60000A1946CB6800EA0302A0
:10557800019B01330193019BB3F5803F01D0002AC1
:10558800F3D0054BDB6818420CBF00200120FF2236
:10559800014B5A6202B070470028004010B4094B12
:1055A800CA245C6253245C620A43B0F5807F0EBF54
:1055B8005A64044B9A64FF22024B5A625DF8044B0A
:1055C800704700BF00280040B0F5807F034B0CBF38
:1055D800586C986CC0F30E00704700BF002800405C
:1055E800074BCA225A6253225A629A6822F007026B
:1055F8009A609A6810439860FF225A62704700BF09
:1056080000280040044BCA225A6253225A62586149
:10561800FF225A62704700BF00280040014B5869BA
:1056280080B270470028004082B000230193134BDA
:10563800CA225A6253225A6228B19A6842F4806296
:105648009A60012015E00D4B9A6822F480629A60F6
:105658001946CB6803F00402019B01330193019BB7
:10566800B3F5803F01D0002AF3D0044BD868C0F3CB
:105678008000FF22014B5A6202B0704700280040A8
:10568800074BCA225A6253225A629A6822F480222D
:105698009A609A68114308439860FF225A627047DB
:1056A80000280040024B986800F48020704700BF33
:1056B80000280040074BCA225A6253225A629A684D
:1056C80022F4E0029A609A68114308439860FF2226
:1056D8005A6270470028004038B505460C460A4B08
:1056E800CA225A6253225A62FFF7A2FC30B12C43F5
:1056F800054B9C61FFF7C0FC012000E00020FF2261
:10570800014B5A6238BD00BF0028004010B504465E
:105718000E4BCA225A6253225A62FFF789FC78B1AB
:105728002CB10A4B9A6842F080029A6004E0074B59
:105738009A6822F080029A60FFF79EFC012000E040
:105748000020FF22014B5A6210BD00BF0028004014
:10575800094BCA225A6253225A6220B19A6842F40B
:1057680000029A6004E0044B9A6822F400029A60EE
:10577800FF22014B5A62704700280040074BCA229B
:105788005A6253225A629A6822F400229A609A68EE
:1057980010439860FF225A62704700BF00280040FB
:1057A80030B4144BCA245C6253245C62DB6813F483
:1057B800803F0DD00F4BDB6813F4803F08D04FF4C7
:1057C80000330C4DEC6814F4803F01D0013BF9D153
:1057D800084BDB6813F4803F05D111430843054BA0
:1057E800D863012000E00020FF22024B5A6230BC3F
:1057F800704700BF002800400A4B9B6823F40063F1
:1058080023F0080319B143F40063184300E0184378
:10581800044BCA225A6253225A629860FF225A6283
:10582800704700BF0028004038B50D4614461A4A94
:10583800136B526BC3F305412970C3F306216970DA
:1058480003F07F01A97003F480031B0CEB700023A5
:10585800E370C2F30423637002F03F03A370C2F342
:1058680042322270B8B92878FFF7C2FB28706878EE
:10587800FFF7BEFB6870A878FFF7BAFBA8706078DE
:10588800FFF7B6FB6070A078FFF7B2FBA070207836
:10589800FFF7AEFB207038BD00280040014B986B25
:1058A800704700BF0028004029B9064B1A6C22EA4D
:1058B800400018647047034B1A6C42EA40001864B1
:1058C800704700BF0028004021B1054B1A6C1043F7
:1058D80018647047024B1A6C22EA0000186470477B
:1058E80000280040044B1A6C22F4C0521A641A6C47
:1058F80010431864704700BF00280040044B1A6C1E
:1059080022F4E0621A641A6C10431864704700BFEE
:1059180000280040044B1A6C22F4C0421A641A6C26
:1059280010431864704700BF0028004028B1064B98
:105938001A6C42F080021A647047034B1A6C22F00A
:1059480080021A64704700BF0028004028B1064B47
:105958001A6C22F400421A647047034B1A6C42F422
:1059680000421A64704700BF0028004082B000233C
:105978000193054B0193019B03EB80000190019B70
:10598800196002B0704700BF5028004082B0002361
:105998000193054B0193019B03EB80000190019B50
:1059A800186802B0704700BF50280040044B1A6CBA
:1059B80022F480321A641A6C10431864704700BFCE
:1059C80000280040044B1A6C22F400321A641A6C46
:1059D80010431864704700BF00280040044B1A6C3D
:1059E80022F480221A641A6C10431864704700BFAE
:1059F8000028004010B5184BCA225A6253225A6236
:105A0800DB6813F0080F0DD0134BDB6813F0080F99
:105A180008D04FF48053104CE26812F0080F01D000
:105A2800013BF9D10C4BDB6813F0080F0DD10A4B81
:105A38009B6813F0100F0AD10143074BD962FFF797
:105A480049FB003018BF012002E0002000E00020E0
:105A5800FF22014B5A6210BD00280040104BCA2299
:105A68005A6253225A6251B19A6820F004010A43DB
:105A78009A601A6C00F00400104318640CE0084B9C
:105A88009A6820F0040122EA01029A601A6C00F078
:105A9800040022EA00001864FF22014B5A62704792
:105AA80000280040074BDB6823F07F4323F47E0384
:105AB80023F4404323F0800303420CBF002001205D
:105AC800704700BF00280040054BDA6880B240F0FC
